:100000000C942A000C94DE010C9405020C942C0232
:100010000C943C000C943C000C943C000C943C0070
:100020000C943C000C943C000C943C000C943C0060
:100030000C943C000C943C000C943C000C943C0050
:100040000C943C000C943C000C943C000C943C0040
:100050000C943C0011241FBECFE5D8E0DEBFCDBF1D
:1000600010E0A0E6B0E001C01D92AB36B107E1F7A9
:100070000E945D050C94BF050C940000442349F4D4
:10008000813031F18130C0F08230D1F1833061F1C3
:1000900008954130E9F7813009F459C0813008F002
:1000A0003BC02AB381E090E002C0880F991F6A9597
:1000B000E2F7282B2ABB08952AB381E090E002C022
:1000C000880F991F6A95E2F7809582238ABB08956D
:1000D00027B381E090E002C0880F991F6A95E2F78C
:1000E0008095822387BB089521B381E090E002C010
:1000F000880F991F6A95E2F78095822381BB089546
:1001000024B381E090E002C0880F991F6A95E2F75E
:100110008095822384BB0895823071F0833009F08A
:10012000B7CF21B381E090E002C0880F991F6A9594
:10013000E2F7282B21BB089524B381E090E002C0B0
:10014000880F991F6A95E2F7282B24BB089527B3DF
:1001500081E090E002C0880F991F6A95E2F7282B92
:1001600027BB0895813059F0813028F0823049F062
:10017000833019F008956ABB089561BB089567BB89
:10018000089564BB0895442349F4813031F18130EE
:10019000C0F08230D1F1833061F108954130E9F748
:1001A000813009F459C0813008F03BC02BB381E0A5
:1001B00090E002C0880F991F6A95E2F7282B2BBBAD
:1001C00008952BB381E090E002C0880F991F6A95D3
:1001D000E2F7809582238BBB089528B381E090E0FD
:1001E00002C0880F991F6A95E2F78095822388BB29
:1001F000089522B381E090E002C0880F991F6A95AC
:10020000E2F78095822382BB089525B381E090E0D8
:1002100002C0880F991F6A95E2F78095822385BBFB
:100220000895823071F0833009F0B7CF22B381E0B6
:1002300090E002C0880F991F6A95E2F7282B22BB35
:10024000089525B381E090E002C0880F991F6A9558
:10025000E2F7282B25BB089528B381E090E002C087
:10026000880F991F6A95E2F7282B28BB08958130E3
:1002700059F0813028F0823049F0833019F0089528
:100280006BBB089562BB089568BB089565BB089574
:100290008130D1F0813030F08230F9F0833059F084
:1002A00080E0089589B390E002C0959587956A959E
:1002B000E2F78170089580B390E002C0959587952C
:1002C0006A95E2F78170089586B390E002C0959533
:1002D00087956A95E2F78170089583B390E002C034
:1002E000959587956A95E2F7817008958130E9F0D8
:1002F000813028F0823021F1833061F008952BB3F2
:1003000081E090E002C0880F991F6A95E2F72827E4
:100310002BBB089522B381E090E002C0880F991FA3
:100320006A95E2F7282722BB089528B381E090E080
:1003300002C0880F991F6A95E2F7282728BB089505
:1003400025B381E090E002C0880F991F6A95E2F71B
:10035000282725BB08958FB780688FBF85B7826037
:1003600085BF8BB780648BBF08958FB780688FBFC0
:1003700085B7886085BF8BB780688BBF08958FB7BE
:1003800080688FBF84B78F7B84BF8BB780628BBF41
:100390000895009721F09093620080936100089582
:1003A000009721F090936400809363000895009774
:1003B00021F0909366008093650008951F920F923C
:1003C0000FB60F9211242F933F934F935F936F9328
:1003D0007F938F939F93AF93BF93EF93FF93E0919E
:1003E0006100F09162000995FF91EF91BF91AF918B
:1003F0009F918F917F916F915F914F913F912F913D
:100400000F900FBE0F901F9018951F920F920FB66E
:100410000F9211242F933F934F935F936F937F938A
:100420008F939F93AF93BF93EF93FF93E0916300FC
:10043000F09164000995FF91EF91BF91AF919F9169
:100440008F917F916F915F914F913F912F910F907D
:100450000FBE0F901F9018951F920F920FB60F921C
:1004600011242F933F934F935F936F937F938F93B9
:100470009F93AF93BF93EF93FF93E0916500F0914B
:1004800066000995FF91EF91BF91AF919F918F9178
:100490007F916F915F914F913F912F910F900FBE80
:1004A0000F901F9018950F931F93182F83E060E013
:1004B00040E00E94C30083E061E040E00E94C3008E
:1004C00082E0612F0E94370183E064E041E00E94F6
:1004D000C30000ED17E0C8010197F1F783E064E085
:1004E00040E00E94C300C8010197F1F71F910F91EE
:1004F00008950F931F93182F83E060E041E00E945E
:10050000C30083E061E040E00E94C30082E0612F0D
:100510000E94370183E064E041E00E94C30000EDE7
:1005200017E0C8010197F1F783E064E040E00E9422
:10053000C300C8010197F1F71F910F9108950F9320
:100540001F9382E06FEF0E94B20083E060E041E021
:100550000E943E0083E061E041E00E943E0083E0B3
:1005600064E041E00E943E0020E030E048EC50E0D2
:10057000CA010197F1F72F5F3F4F81E0203938071B
:10058000B9F783E060E040E00E94C30083E061E0EF
:1005900040E00E94C30082E068E30E94370183E0EC
:1005A00064E041E00E94C30000ED17E0C80101973C
:1005B000F1F783E064E040E00E94C300C8010197C6
:1005C000F1F7C8010197F1F783E060E040E00E9495
:1005D000C30083E061E040E00E94C30082E06FE07E
:1005E0000E94370183E064E041E00E94C300C8013B
:1005F0000197F1F783E064E040E00E94C300C80186
:100600000197F1F7C8010197F1F783E060E040E05E
:100610000E94C30083E061E040E00E94C30082E0EA
:1006200061E00E94370183E064E041E00E94C30082
:10063000C8010197F1F783E064E040E00E94C30045
:10064000C8010197F1F780EA9FE00197F1F71F9148
:100650000F910895EF92FF920F931F93CF93DF9323
:100660007C01FC011081112341F100E0C0EDD7E0D5
:1006700083E060E041E00E94C30083E061E040E08D
:100680000E94C30082E0612F0E94370183E064E092
:1006900041E00E94C300CE010197F1F783E064E0DE
:1006A00040E00E94C300CE010197F1F70F5FF70110
:1006B000E00FF11D10811123D9F6DF91CF911F9129
:1006C0000F91FF90EF9008950F931F93062F8823AB
:1006D00029F0813039F11F910F91089583E060E096
:1006E00040E00E94C30083E061E040E00E94C3005C
:1006F000005882E0602F0E94370183E064E041E00F
:100700000E94C30000ED17E0C8010197F1F783E0F4
:1007100064E040E00E94C300C8010197F1F71F9117
:100720000F91089583E060E040E00E94C30083E001
:1007300061E040E00E94C3000054DBCFEF92FF92E3
:100740000F931F93CF93DF939C01009709F458C038
:1007500000E0C0E0D0E0CE01880F991F880F991FFC
:10076000880F991FCC0FDD1FC80FD91FC9016AE080
:1007700070E00E94AB05C80FD91FC9016AE070E0A4
:100780000E94AB059B010F5F6115710521F70023E6
:1007900081F180EDE82E87E0F82E83E060E041E013
:1007A0000E94C30083E061E040E00E94C300CE01EC
:1007B0006AE070E00E94AB05682F605D82E00E94F5
:1007C000370183E064E041E00E94C300C701019764
:1007D000F1F783E064E040E00E94C300C7010197A5
:1007E000F1F7CE016AE070E00E94AB05EB01015029
:1007F000A1F6DF91CF911F910F91FF90EF90089597
:1008000083E060E041E00E94C30083E061E040E0FB
:100810000E94C30082E060E30E94370183E064E04D
:1008200041E00E94C30000ED17E0C8010197F1F715
:1008300083E064E040E00E94C300C8010197F1F743
:10084000DF91CF911F910F91FF90EF9008950F933B
:100850001F9383E060E040E00E94C30083E061E01A
:1008600040E00E94C30082E060E40E94370183E020
:1008700064E041E00E94C30000ED17E0C801019769
:10088000F1F783E064E040E00E94C300C8010197F3
:10089000F1F783E060E041E00E94C30083E061E0A3
:1008A00040E00E94C30082E061E00E94370183E0E3
:1008B00064E041E00E94C300C8010197F1F783E0C2
:1008C00064E040E00E94C300C8010197F1F783E0B3
:1008D00060E041E00E94C30083E061E040E00E94EC
:1008E000C30082E061E00E94370183E064E041E000
:1008F0000E94C300C8010197F1F783E064E040E083
:100900000E94C300C8010197F1F783E060E041E075
:100910000E94C30083E061E040E00E94C30082E0E7
:1009200061E00E94370183E064E041E00E94C3007F
:10093000C8010197F1F783E064E040E00E94C30042
:10094000C8010197F1F783E060E041E00E94C30035
:1009500083E061E040E00E94C30082E061E00E9429
:10096000370183E064E041E00E94C300C8010197C1
:10097000F1F783E064E040E00E94C300C801019702
:10098000F1F783E060E041E00E94C30083E061E0B2
:1009900040E00E94C30082E061E00E94370183E0F2
:1009A00064E041E00E94C300C8010197F1F783E0D1
:1009B00064E040E00E94C300C8010197F1F783E0C2
:1009C00060E041E00E94C30083E061E040E00E94FB
:1009D000C30082E061E00E94370183E064E041E00F
:1009E0000E94C300C8010197F1F783E064E040E092
:1009F0000E94C300C8010197F1F783E060E040E086
:100A00000E94C30083E061E040E00E94C30082E0F6
:100A100060E80E94370183E064E041E00E94C30087
:100A2000C8010197F1F783E064E040E00E94C30051
:100A3000C8010197F1F783E060E041E00E94C30044
:100A400083E061E040E00E94C30082E060E00E9439
:100A5000370183E064E041E00E94C300C8010197D0
:100A6000F1F783E064E040E00E94C300C801019711
:100A7000F1F71F910F910895809167008F5F809328
:100A80006700853009F0089580936A000895809189
:100A900068008F5F80936800853009F00895809327
:100AA0006A000895809169008F5F809369008530A6
:100AB00009F0089580936A00089581E062E040E0C3
:100AC0000E943E0081E062E041E00E94C30083E0BA
:100AD00062E040E00E943E0083E062E041E00E946C
:100AE000C30083E063E040E00E943E0083E063E0F7
:100AF00041E00E94C3000E94AB010E94B5010E9428
:100B0000BF018CE395E00E94C90187E495E00E9453
:100B1000D00182E595E00E94D7010E949F0280E00B
:100B200060E00E9464038091670090E00E949E0351
:100B300080E065E00E9464038091680090E00E947C
:100B40009E0381E060E00E9464038091690090E070
:100B50000E949E03E4CFAA1BBB1B51E107C0AA1F42
:100B6000BB1FA617B70710F0A61BB70B881F991F4E
:100B70005A95A9F780959095BC01CD010895F894F8
:020B8000FFCFA5
:00000001FF
